{
  "_format": "hh-sol-artifact-1",
  "contractName": "BoxV2",
  "sourceName": "contracts/BoxV2.sol",
  "abi": [
    {
      "inputs": [],
      "name": "InvalidInitialization",
      "type": "error"
    },
    {
      "inputs": [],
      "name": "NotInitializing",
      "type": "error"
    },
    {
      "inputs": [
        {
          "internalType": "address",
          "name": "owner",
          "type": "address"
        }
      ],
      "name": "OwnableInvalidOwner",
      "type": "error"
    },
    {
      "inputs": [
        {
          "internalType": "address",
          "name": "account",
          "type": "address"
        }
      ],
      "name": "OwnableUnauthorizedAccount",
      "type": "error"
    },
    {
      "anonymous": false,
      "inputs": [
        {
          "indexed": false,
          "internalType": "uint64",
          "name": "version",
          "type": "uint64"
        }
      ],
      "name": "Initialized",
      "type": "event"
    },
    {
      "anonymous": false,
      "inputs": [
        {
          "indexed": true,
          "internalType": "address",
          "name": "previousOwner",
          "type": "address"
        },
        {
          "indexed": true,
          "internalType": "address",
          "name": "newOwner",
          "type": "address"
        }
      ],
      "name": "OwnershipTransferred",
      "type": "event"
    },
    {
      "anonymous": false,
      "inputs": [
        {
          "indexed": false,
          "internalType": "uint256",
          "name": "value",
          "type": "uint256"
        }
      ],
      "name": "ValueChanged",
      "type": "event"
    },
    {
      "inputs": [],
      "name": "increment",
      "outputs": [],
      "stateMutability": "nonpayable",
      "type": "function"
    },
    {
      "inputs": [],
      "name": "initialize",
      "outputs": [],
      "stateMutability": "nonpayable",
      "type": "function"
    },
    {
      "inputs": [],
      "name": "owner",
      "outputs": [
        {
          "internalType": "address",
          "name": "",
          "type": "address"
        }
      ],
      "stateMutability": "view",
      "type": "function"
    },
    {
      "inputs": [],
      "name": "renounceOwnership",
      "outputs": [],
      "stateMutability": "nonpayable",
      "type": "function"
    },
    {
      "inputs": [],
      "name": "retrieve",
      "outputs": [
        {
          "internalType": "uint256",
          "name": "",
          "type": "uint256"
        }
      ],
      "stateMutability": "view",
      "type": "function"
    },
    {
      "inputs": [],
      "name": "retrieveOpen",
      "outputs": [
        {
          "internalType": "uint256",
          "name": "",
          "type": "uint256"
        }
      ],
      "stateMutability": "view",
      "type": "function"
    },
    {
      "inputs": [
        {
          "internalType": "uint256",
          "name": "value",
          "type": "uint256"
        }
      ],
      "name": "store",
      "outputs": [],
      "stateMutability": "nonpayable",
      "type": "function"
    },
    {
      "inputs": [
        {
          "internalType": "uint256",
          "name": "value",
          "type": "uint256"
        }
      ],
      "name": "storeOpenValue",
      "outputs": [],
      "stateMutability": "nonpayable",
      "type": "function"
    },
    {
      "inputs": [
        {
          "internalType": "address",
          "name": "newOwner",
          "type": "address"
        }
      ],
      "name": "transferOwnership",
      "outputs": [],
      "stateMutability": "nonpayable",
      "type": "function"
    }
  ],
  "bytecode": "0x608060405234801561001057600080fd5b506109b5806100206000396000f3fe608060405234801561001057600080fd5b50600436106100935760003560e01c8063715018a611610066578063715018a61461010c5780638129fc1c146101165780638da5cb5b14610120578063d09de08a1461013e578063f2fde38b1461014857610093565b806322f6d51e146100985780632e64cec1146100b45780636057361d146100d25780636f286bd6146100ee575b600080fd5b6100b260048036038101906100ad919061079c565b610164565b005b6100bc6101a5565b6040516100c991906107d8565b60405180910390f35b6100ec60048036038101906100e7919061079c565b6101ae565b005b6100f66101f7565b60405161010391906107d8565b60405180910390f35b610114610201565b005b61011e610215565b005b6101286103a3565b6040516101359190610834565b60405180910390f35b6101466103db565b005b610162600480360381019061015d919061087b565b61042b565b005b806001819055507f93fe6d397c74fdf1402a8b72e47b68512f0510d7b98a4bc4cbdf6ac7108b3c598160405161019a91906107d8565b60405180910390a150565b60008054905090565b6101b66104b1565b806000819055507f93fe6d397c74fdf1402a8b72e47b68512f0510d7b98a4bc4cbdf6ac7108b3c59816040516101ec91906107d8565b60405180910390a150565b6000600154905090565b6102096104b1565b6102136000610538565b565b600061021f61060f565b905060008160000160089054906101000a900460ff1615905060008260000160009054906101000a900467ffffffffffffffff1690506000808267ffffffffffffffff1614801561026d5750825b9050600060018367ffffffffffffffff161480156102a2575060003073ffffffffffffffffffffffffffffffffffffffff163b145b9050811580156102b0575080155b156102e7576040517ff92ee8a900000000000000000000000000000000000000000000000000000000815260040160405180910390fd5b60018560000160006101000a81548167ffffffffffffffff021916908367ffffffffffffffff16021790555083156103375760018560000160086101000a81548160ff0219169083151502179055505b61034033610637565b831561039c5760008560000160086101000a81548160ff0219169083151502179055507fc7f505b2f371ae2175ee4913f4499e1f2633a7b5936321eed1cdaeb6115181d260016040516103939190610901565b60405180910390a15b5050505050565b6000806103ae61064b565b90508060000160009054906101000a900473ffffffffffffffffffffffffffffffffffffffff1691505090565b60016000546103ea919061094b565b6000819055507f93fe6d397c74fdf1402a8b72e47b68512f0510d7b98a4bc4cbdf6ac7108b3c5960005460405161042191906107d8565b60405180910390a1565b6104336104b1565b600073ffffffffffffffffffffffffffffffffffffffff168173ffffffffffffffffffffffffffffffffffffffff16036104a55760006040517f1e4fbdf700000000000000000000000000000000000000000000000000000000815260040161049c9190610834565b60405180910390fd5b6104ae81610538565b50565b6104b9610673565b73ffffffffffffffffffffffffffffffffffffffff166104d76103a3565b73ffffffffffffffffffffffffffffffffffffffff1614610536576104fa610673565b6040517f118cdaa700000000000000000000000000000000000000000000000000000000815260040161052d9190610834565b60405180910390fd5b565b600061054261064b565b905060008160000160009054906101000a900473ffffffffffffffffffffffffffffffffffffffff169050828260000160006101000a81548173ffffffffffffffffffffffffffffffffffffffff021916908373ffffffffffffffffffffffffffffffffffffffff1602179055508273ffffffffffffffffffffffffffffffffffffffff168173ffffffffffffffffffffffffffffffffffffffff167f8be0079c531659141344cd1fd0a4f28419497f9722a3daafe3b4186f6b6457e060405160405180910390a3505050565b60007ff0c57e16840df040f15088dc2f81fe391c3923bec73e23a9662efc9c229c6a00905090565b61063f61067b565b610648816106bb565b50565b60007f9016d09d72d40fdae2fd8ceac6b6234c7706214fd39c1cd1e609a0528c199300905090565b600033905090565b610683610741565b6106b9576040517fd7e6bcf800000000000000000000000000000000000000000000000000000000815260040160405180910390fd5b565b6106c361067b565b600073ffffffffffffffffffffffffffffffffffffffff168173ffffffffffffffffffffffffffffffffffffffff16036107355760006040517f1e4fbdf700000000000000000000000000000000000000000000000000000000815260040161072c9190610834565b60405180910390fd5b61073e81610538565b50565b600061074b61060f565b60000160089054906101000a900460ff16905090565b600080fd5b6000819050919050565b61077981610766565b811461078457600080fd5b50565b60008135905061079681610770565b92915050565b6000602082840312156107b2576107b1610761565b5b60006107c084828501610787565b91505092915050565b6107d281610766565b82525050565b60006020820190506107ed60008301846107c9565b92915050565b600073ffffffffffffffffffffffffffffffffffffffff82169050919050565b600061081e826107f3565b9050919050565b61082e81610813565b82525050565b60006020820190506108496000830184610825565b92915050565b61085881610813565b811461086357600080fd5b50565b6000813590506108758161084f565b92915050565b60006020828403121561089157610890610761565b5b600061089f84828501610866565b91505092915050565b6000819050919050565b600067ffffffffffffffff82169050919050565b6000819050919050565b60006108eb6108e66108e1846108a8565b6108c6565b6108b2565b9050919050565b6108fb816108d0565b82525050565b600060208201905061091660008301846108f2565b92915050565b7f4e487b7100000000000000000000000000000000000000000000000000000000600052601160045260246000fd5b600061095682610766565b915061096183610766565b92508282019050808211156109795761097861091c565b5b9291505056fea264697066735822122062dd49d75e42007a39927e89a4c4c824fcb58a8e3298213495671cc62cf195f564736f6c63430008140033",
  "linkReferences": {},
  "deployedLinkReferences": {}
}